{
  "transactions": [
    {
      "hash": "0x175142237798780d7c2bf8c7f7cf1201e7c1b033f941eb2236e8bcc3a9671e44",
      "transactionType": "CALL",
      "contractName": null,
      "contractAddress": "0x833589fcd6edb6e08f4c7c32d4f71b54bda02913",
      "function": "approve(address,uint256)",
      "arguments": [
        "0xb7BF1cF19Df884dFC1715467d09c6F0c76D9Dc06",
        "115792089237316195423570985008687907853269984665640564039457584007913129639935"
      ],
      "transaction": {
        "from": "0xce2329658552963e09f32e04689550986cdf03b7",
        "to": "0x833589fcd6edb6e08f4c7c32d4f71b54bda02913",
        "gas": "0x13eb1",
        "value": "0x0",
        "input": "0x095ea7b3000000000000000000000000b7bf1cf19df884dfc1715467d09c6f0c76d9dc06ffffffffffffffffffffffffffffffffffffffffffffffffffffffffffffffff",
        "nonce": "0x1d",
        "chainId": "0x2105"
      },
      "additionalContracts": [],
      "isFixedGasLimit": false
    },
    {
      "hash": "0xb49231362e7a60bd92d3b5c3d69b0b02f9f15ae2b53c48534664f2a65c1a9fa0",
      "transactionType": "CALL",
      "contractName": null,
      "contractAddress": "0xb7bf1cf19df884dfc1715467d09c6f0c76d9dc06",
      "function": "approveToken(address)",
      "arguments": [
        "0x833589fCD6eDb6E08f4c7C32D4f71b54bdA02913"
      ],
      "transaction": {
        "from": "0xce2329658552963e09f32e04689550986cdf03b7",
        "to": "0xb7bf1cf19df884dfc1715467d09c6f0c76d9dc06",
        "gas": "0x1d645",
        "value": "0x0",
        "input": "0x80b2edd8000000000000000000000000833589fcd6edb6e08f4c7c32d4f71b54bda02913",
        "nonce": "0x1e",
        "chainId": "0x2105"
      },
      "additionalContracts": [],
      "isFixedGasLimit": false
    },
    {
      "hash": "0x20e73ec87814d958b7b7d67f23216ea5ec2f9a5e91fd63e142161ad97e09ddb0",
      "transactionType": "CALL",
      "contractName": null,
      "contractAddress": "0xb7bf1cf19df884dfc1715467d09c6f0c76d9dc06",
      "function": "swap(address,address,uint24,int24,uint128,uint128)",
      "arguments": [
        "0x833589fCD6eDb6E08f4c7C32D4f71b54bdA02913",
        "0x4200000000000000000000000000000000000006",
        "500",
        "10",
        "100000",
        "0"
      ],
      "transaction": {
        "from": "0xce2329658552963e09f32e04689550986cdf03b7",
        "to": "0xb7bf1cf19df884dfc1715467d09c6f0c76d9dc06",
        "gas": "0x36d4e",
        "value": "0x0",
        "input": "0x00a186e1000000000000000000000000833589fcd6edb6e08f4c7c32d4f71b54bda02913000000000000000000000000420000000000000000000000000000000000000600000000000000000000000000000000000000000000000000000000000001f4000000000000000000000000000000000000000000000000000000000000000a00000000000000000000000000000000000000000000000000000000000186a00000000000000000000000000000000000000000000000000000000000000000",
        "nonce": "0x1f",
        "chainId": "0x2105"
      },
      "additionalContracts": [],
      "isFixedGasLimit": false
    }
  ],
  "receipts": [
    {
      "status": "0x1",
      "cumulativeGasUsed": "0x2304d4a",
      "logs": [
        {
          "address": "0x833589fcd6edb6e08f4c7c32d4f71b54bda02913",
          "topics": [
            "0x8c5be1e5ebec7d5bd14f71427d1e84f3dd0314c0f7b2291e5b200ac8c7c3b925",
            "0x000000000000000000000000ce2329658552963e09f32e04689550986cdf03b7",
            "0x000000000000000000000000b7bf1cf19df884dfc1715467d09c6f0c76d9dc06"
          ],
          "data": "0xffffffffffffffffffffffffffffffffffffffffffffffffffffffffffffffff",
          "blockHash": "0x94b8e8259501cb0cc1e04a11e099c1a01ac481ff85777fc5fc4b5aac8c7bbbdc",
          "blockNumber": "0x240b621",
          "blockTimestamp": "0x690bc925",
          "transactionHash": "0x175142237798780d7c2bf8c7f7cf1201e7c1b033f941eb2236e8bcc3a9671e44",
          "transactionIndex": "0xff",
          "logIndex": "0x291",
          "removed": false
        }
      ],
      "logsBloom": "0x00000000000000000000000000000000000000000000000000000000000000000000000000000020000000000000100000000000000000000000000000202000000000000000000000000000000000000000000000080000000000000000000000800000000000000000000000000000000000000000000000000000000000000000004000000000000000000000000000000000000000000000080000000000020000000000000000000000000000000000000000000000800000000000000000000000000000020000000000000000000000000000000000000000000000000010000000000000000000000000000000000000000000000000000000000000",
      "type": "0x2",
      "transactionHash": "0x175142237798780d7c2bf8c7f7cf1201e7c1b033f941eb2236e8bcc3a9671e44",
      "transactionIndex": "0xff",
      "blockHash": "0x94b8e8259501cb0cc1e04a11e099c1a01ac481ff85777fc5fc4b5aac8c7bbbdc",
      "blockNumber": "0x240b621",
      "gasUsed": "0xd9e9",
      "effectiveGasPrice": "0x3df2c2",
      "from": "0xce2329658552963e09f32e04689550986cdf03b7",
      "to": "0x833589fcd6edb6e08f4c7c32d4f71b54bda02913",
      "contractAddress": null,
      "l1BaseFeeScalar": "0x8dd",
      "l1BlobBaseFee": "0x1",
      "l1BlobBaseFeeScalar": "0x101c12",
      "l1Fee": "0x421125df",
      "l1GasPrice": "0x1232c16f",
      "l1GasUsed": "0x640"
    },
    {
      "status": "0x1",
      "cumulativeGasUsed": "0x231a1c2",
      "logs": [
        {
          "address": "0x833589fcd6edb6e08f4c7c32d4f71b54bda02913",
          "topics": [
            "0x8c5be1e5ebec7d5bd14f71427d1e84f3dd0314c0f7b2291e5b200ac8c7c3b925",
            "0x000000000000000000000000b7bf1cf19df884dfc1715467d09c6f0c76d9dc06",
            "0x000000000000000000000000000000000022d473030f116ddee9f6b43ac78ba3"
          ],
          "data": "0xffffffffffffffffffffffffffffffffffffffffffffffffffffffffffffffff",
          "blockHash": "0x94b8e8259501cb0cc1e04a11e099c1a01ac481ff85777fc5fc4b5aac8c7bbbdc",
          "blockNumber": "0x240b621",
          "blockTimestamp": "0x690bc925",
          "transactionHash": "0xb49231362e7a60bd92d3b5c3d69b0b02f9f15ae2b53c48534664f2a65c1a9fa0",
          "transactionIndex": "0x100",
          "logIndex": "0x292",
          "removed": false
        },
        {
          "address": "0x000000000022d473030f116ddee9f6b43ac78ba3",
          "topics": [
            "0xda9fa7c1b00402c17d0161b249b1ab8bbec047c5a52207b9c112deffd817036b",
            "0x000000000000000000000000b7bf1cf19df884dfc1715467d09c6f0c76d9dc06",
            "0x000000000000000000000000833589fcd6edb6e08f4c7c32d4f71b54bda02913",
            "0x0000000000000000000000006ff5693b99212da76ad316178a184ab56d299b43"
          ],
          "data": "0x000000000000000000000000ffffffffffffffffffffffffffffffffffffffff000000000000000000000000000000000000000000000000000000006aecfca5",
          "blockHash": "0x94b8e8259501cb0cc1e04a11e099c1a01ac481ff85777fc5fc4b5aac8c7bbbdc",
          "blockNumber": "0x240b621",
          "blockTimestamp": "0x690bc925",
          "transactionHash": "0xb49231362e7a60bd92d3b5c3d69b0b02f9f15ae2b53c48534664f2a65c1a9fa0",
          "transactionIndex": "0x100",
          "logIndex": "0x293",
          "removed": false
        }
      ],
      "logsBloom": "0x00010000000000000000000000000000000000000000000000000000000000000000000000000020000000000000100000000000800000000000000000282000000000000000040000004000000000000000000000080800000000000000000000800000000000000000000000000000010000000000000000000000000000000020000000000000400000000000000000000000000000000000080000000000020000000000000000000000000000001000000000100000000000080000000000000000000000000000000000000000000000000000000040000000000000000010000000000000000000000000000000000000000000000200000000000400",
      "type": "0x2",
      "transactionHash": "0xb49231362e7a60bd92d3b5c3d69b0b02f9f15ae2b53c48534664f2a65c1a9fa0",
      "transactionIndex": "0x100",
      "blockHash": "0x94b8e8259501cb0cc1e04a11e099c1a01ac481ff85777fc5fc4b5aac8c7bbbdc",
      "blockNumber": "0x240b621",
      "gasUsed": "0x15478",
      "effectiveGasPrice": "0x3df2c2",
      "from": "0xce2329658552963e09f32e04689550986cdf03b7",
      "to": "0xb7bf1cf19df884dfc1715467d09c6f0c76d9dc06",
      "contractAddress": null,
      "l1BaseFeeScalar": "0x8dd",
      "l1BlobBaseFee": "0x1",
      "l1BlobBaseFeeScalar": "0x101c12",
      "l1Fee": "0x421125df",
      "l1GasPrice": "0x1232c16f",
      "l1GasUsed": "0x640"
    },
    {
      "status": "0x1",
      "cumulativeGasUsed": "0x2341cea",
      "logs": [
        {
          "address": "0x833589fcd6edb6e08f4c7c32d4f71b54bda02913",
          "topics": [
            "0xddf252ad1be2c89b69c2b068fc378daa952ba7f163c4a11628f55a4df523b3ef",
            "0x000000000000000000000000ce2329658552963e09f32e04689550986cdf03b7",
            "0x000000000000000000000000b7bf1cf19df884dfc1715467d09c6f0c76d9dc06"
          ],
          "data": "0x00000000000000000000000000000000000000000000000000000000000186a0",
          "blockHash": "0x1d06fcae4307c95f96fd199e9546bc0756bfd2292c150fb634fc37882d246675",
          "blockNumber": "0x240b621",
          "blockTimestamp": "0x690bc925",
          "transactionHash": "0x20e73ec87814d958b7b7d67f23216ea5ec2f9a5e91fd63e142161ad97e09ddb0",
          "transactionIndex": "0x101",
          "logIndex": "0x294",
          "removed": false
        },
        {
          "address": "0x498581ff718922c3f8e6a244956af099b2652b2b",
          "topics": [
            "0x40e9cecb9f5f1f1c5b9c97dec2917b7ee92e57ba5563708daca94dd84ad7112f",
            "0x90333bb05c258fe0dddb2840ef66f1a05165aa7dac6815d24e807cc6ebd943a0",
            "0x0000000000000000000000006ff5693b99212da76ad316178a184ab56d299b43"
          ],
          "data": "0x00000000000000000000000000000000000000000000000000001a3d494b7d11fffffffffffffffffffffffffffffffffffffffffffffffffffffffffffe796000000000000000000000000000000000000000000003dcf461169904d5da9c4200000000000000000000000000000000000000000000000000000085bee381c6fffffffffffffffffffffffffffffffffffffffffffffffffffffffffffd071c00000000000000000000000000000000000000000000000000000000000001f4",
          "blockHash": "0x1d06fcae4307c95f96fd199e9546bc0756bfd2292c150fb634fc37882d246675",
          "blockNumber": "0x240b621",
          "blockTimestamp": "0x690bc925",
          "transactionHash": "0x20e73ec87814d958b7b7d67f23216ea5ec2f9a5e91fd63e142161ad97e09ddb0",
          "transactionIndex": "0x101",
          "logIndex": "0x295",
          "removed": false
        },
        {
          "address": "0x833589fcd6edb6e08f4c7c32d4f71b54bda02913",
          "topics": [
            "0xddf252ad1be2c89b69c2b068fc378daa952ba7f163c4a11628f55a4df523b3ef",
            "0x000000000000000000000000b7bf1cf19df884dfc1715467d09c6f0c76d9dc06",
            "0x000000000000000000000000498581ff718922c3f8e6a244956af099b2652b2b"
          ],
          "data": "0x00000000000000000000000000000000000000000000000000000000000186a0",
          "blockHash": "0x1d06fcae4307c95f96fd199e9546bc0756bfd2292c150fb634fc37882d246675",
          "blockNumber": "0x240b621",
          "blockTimestamp": "0x690bc925",
          "transactionHash": "0x20e73ec87814d958b7b7d67f23216ea5ec2f9a5e91fd63e142161ad97e09ddb0",
          "transactionIndex": "0x101",
          "logIndex": "0x296",
          "removed": false
        },
        {
          "address": "0x4200000000000000000000000000000000000006",
          "topics": [
            "0xddf252ad1be2c89b69c2b068fc378daa952ba7f163c4a11628f55a4df523b3ef",
            "0x000000000000000000000000498581ff718922c3f8e6a244956af099b2652b2b",
            "0x000000000000000000000000ce2329658552963e09f32e04689550986cdf03b7"
          ],
          "data": "0x00000000000000000000000000000000000000000000000000001a3d494b7d11",
          "blockHash": "0x1d06fcae4307c95f96fd199e9546bc0756bfd2292c150fb634fc37882d246675",
          "blockNumber": "0x240b621",
          "blockTimestamp": "0x690bc925",
          "transactionHash": "0x20e73ec87814d958b7b7d67f23216ea5ec2f9a5e91fd63e142161ad97e09ddb0",
          "transactionIndex": "0x101",
          "logIndex": "0x297",
          "removed": false
        },
        {
          "address": "0xb7bf1cf19df884dfc1715467d09c6f0c76d9dc06",
          "topics": [
            "0xee4825a7988c5519a874be79f2a84d13d02cfe5f74cad97cda2d5b55d2b13bfa",
            "0x000000000000000000000000833589fcd6edb6e08f4c7c32d4f71b54bda02913",
            "0x0000000000000000000000004200000000000000000000000000000000000006",
            "0x000000000000000000000000ce2329658552963e09f32e04689550986cdf03b7"
          ],
          "data": "0x00000000000000000000000000000000000000000000000000000000000186a000000000000000000000000000000000000000000000000000001a3d494b7d11",
          "blockHash": "0x1d06fcae4307c95f96fd199e9546bc0756bfd2292c150fb634fc37882d246675",
          "blockNumber": "0x240b621",
          "blockTimestamp": "0x690bc925",
          "transactionHash": "0x20e73ec87814d958b7b7d67f23216ea5ec2f9a5e91fd63e142161ad97e09ddb0",
          "transactionIndex": "0x101",
          "logIndex": "0x298",
          "removed": false
        }
      ],
      "logsBloom": "0x00000008000000000000000000040400000000000000000000040000000000000020000800000020000000100000100000400000040000000020000080002000000000000000040000000008000000000000000000080020000000000000000000800000000000000000000000000000010010000000000000000010000000000000004000204000400000000000000000000000003000000000080400000000004000000000000000000000000000001000000000100000800000100000000000000002000004020000000000000000000800000000000000000000000000000000000000000000004000000000000000000400000000000200000000000000",
      "type": "0x2",
      "transactionHash": "0x20e73ec87814d958b7b7d67f23216ea5ec2f9a5e91fd63e142161ad97e09ddb0",
      "transactionIndex": "0x101",
      "blockHash": "0x1d06fcae4307c95f96fd199e9546bc0756bfd2292c150fb634fc37882d246675",
      "blockNumber": "0x240b621",
      "gasUsed": "0x27b28",
      "effectiveGasPrice": "0x3df2c2",
      "from": "0xce2329658552963e09f32e04689550986cdf03b7",
      "to": "0xb7bf1cf19df884dfc1715467d09c6f0c76d9dc06",
      "contractAddress": null,
      "l1BaseFeeScalar": "0x8dd",
      "l1BlobBaseFee": "0x1",
      "l1BlobBaseFeeScalar": "0x101c12",
      "l1Fee": "0x4df94d98",
      "l1GasPrice": "0x1232c16f",
      "l1GasUsed": "0x760"
    }
  ],
  "libraries": [],
  "pending": [],
  "returns": {},
  "timestamp": 1762380069457,
  "chain": 8453,
  "commit": "ba792ff"
}