{
  "transactions": [
    {
      "hash": "0x418b4d2c637e4540b9c5033004b7146cf60d5225ddb5b9dfc1b19011338de3f7",
      "transactionType": "CALL",
      "contractName": null,
      "contractAddress": "0x833589fcd6edb6e08f4c7c32d4f71b54bda02913",
      "function": "approve(address,uint256)",
      "arguments": [
        "0x579877Da5Ea110b58B2C27AdEb9CcC77b603c207",
        "115792089237316195423570985008687907853269984665640564039457584007913129639935"
      ],
      "transaction": {
        "from": "0xce2329658552963e09f32e04689550986cdf03b7",
        "to": "0x833589fcd6edb6e08f4c7c32d4f71b54bda02913",
        "gas": "0x13eb1",
        "value": "0x0",
        "input": "0x095ea7b3000000000000000000000000579877da5ea110b58b2c27adeb9ccc77b603c207ffffffffffffffffffffffffffffffffffffffffffffffffffffffffffffffff",
        "nonce": "0xe",
        "chainId": "0x2105"
      },
      "additionalContracts": [],
      "isFixedGasLimit": false
    },
    {
      "hash": "0xa283a912a924ff8d2b7b075dbaa05750e375e68be101fd9a7d09b2c427ce0045",
      "transactionType": "CALL",
      "contractName": null,
      "contractAddress": "0x579877da5ea110b58b2c27adeb9ccc77b603c207",
      "function": "approveToken(address)",
      "arguments": [
        "0x833589fCD6eDb6E08f4c7C32D4f71b54bdA02913"
      ],
      "transaction": {
        "from": "0xce2329658552963e09f32e04689550986cdf03b7",
        "to": "0x579877da5ea110b58b2c27adeb9ccc77b603c207",
        "gas": "0x1d5cc",
        "value": "0x0",
        "input": "0x80b2edd8000000000000000000000000833589fcd6edb6e08f4c7c32d4f71b54bda02913",
        "nonce": "0xf",
        "chainId": "0x2105"
      },
      "additionalContracts": [],
      "isFixedGasLimit": false
    },
    {
      "hash": "0xc6b605353a80e3400e55715026788ba395c5ca36ae79c314f92a4c5b5a541c07",
      "transactionType": "CALL",
      "contractName": null,
      "contractAddress": "0x579877da5ea110b58b2c27adeb9ccc77b603c207",
      "function": "swapUSDCForWETH(uint128,uint128)",
      "arguments": [
        "1000000",
        "0"
      ],
      "transaction": {
        "from": "0xce2329658552963e09f32e04689550986cdf03b7",
        "to": "0x579877da5ea110b58b2c27adeb9ccc77b603c207",
        "gas": "0x1138fc",
        "value": "0x0",
        "input": "0xadb75c6200000000000000000000000000000000000000000000000000000000000f42400000000000000000000000000000000000000000000000000000000000000000",
        "nonce": "0x10",
        "chainId": "0x2105"
      },
      "additionalContracts": [],
      "isFixedGasLimit": false
    }
  ],
  "receipts": [
    {
      "status": "0x1",
      "cumulativeGasUsed": "0x1b55e3b",
      "logs": [
        {
          "address": "0x833589fcd6edb6e08f4c7c32d4f71b54bda02913",
          "topics": [
            "0x8c5be1e5ebec7d5bd14f71427d1e84f3dd0314c0f7b2291e5b200ac8c7c3b925",
            "0x000000000000000000000000ce2329658552963e09f32e04689550986cdf03b7",
            "0x000000000000000000000000579877da5ea110b58b2c27adeb9ccc77b603c207"
          ],
          "data": "0xffffffffffffffffffffffffffffffffffffffffffffffffffffffffffffffff",
          "blockHash": "0x2d8b33da138dce21fef9e2bc78c2719459a1a50b1a12ea5180316a8616d6db77",
          "blockNumber": "0x240a425",
          "blockTimestamp": "0x690ba52d",
          "transactionHash": "0x418b4d2c637e4540b9c5033004b7146cf60d5225ddb5b9dfc1b19011338de3f7",
          "transactionIndex": "0xb3",
          "logIndex": "0x288",
          "removed": false
        }
      ],
      "logsBloom": "0x00000000000000000000000000000000000000000000000000000000000000000000000000000000000000000000100000000000000000000000000000200000000000000000000000040000000000000000000000080000000000000000000000800000000000000000000000000000000000000000000000000000000000000000004000000000000000000000000000000000000000000000000000000000020000000000000000000000000000000100000000000000800000000000000000000000000000020000000000000000000000000000000400000000000000000010000000000000000000000000000000000000000000000000000000000000",
      "type": "0x2",
      "transactionHash": "0x418b4d2c637e4540b9c5033004b7146cf60d5225ddb5b9dfc1b19011338de3f7",
      "transactionIndex": "0xb3",
      "blockHash": "0x2d8b33da138dce21fef9e2bc78c2719459a1a50b1a12ea5180316a8616d6db77",
      "blockNumber": "0x240a425",
      "gasUsed": "0xd9e9",
      "effectiveGasPrice": "0xab39c1",
      "from": "0xce2329658552963e09f32e04689550986cdf03b7",
      "to": "0x833589fcd6edb6e08f4c7c32d4f71b54bda02913",
      "contractAddress": null,
      "l1BaseFeeScalar": "0x8dd",
      "l1BlobBaseFee": "0x1",
      "l1BlobBaseFeeScalar": "0x101c12",
      "l1Fee": "0xf205456f",
      "l1GasPrice": "0x2945febd",
      "l1GasUsed": "0x640"
    },
    {
      "status": "0x1",
      "cumulativeGasUsed": "0x1cb4c0e",
      "logs": [
        {
          "address": "0x833589fcd6edb6e08f4c7c32d4f71b54bda02913",
          "topics": [
            "0x8c5be1e5ebec7d5bd14f71427d1e84f3dd0314c0f7b2291e5b200ac8c7c3b925",
            "0x000000000000000000000000579877da5ea110b58b2c27adeb9ccc77b603c207",
            "0x000000000000000000000000000000000022d473030f116ddee9f6b43ac78ba3"
          ],
          "data": "0xffffffffffffffffffffffffffffffffffffffffffffffffffffffffffffffff",
          "blockHash": "0x3cbf57cb6fe6a11bb8c5158788b46418517d4a7c6ab009b87d0c409e232b3863",
          "blockNumber": "0x240a425",
          "blockTimestamp": "0x690ba52d",
          "transactionHash": "0xa283a912a924ff8d2b7b075dbaa05750e375e68be101fd9a7d09b2c427ce0045",
          "transactionIndex": "0xb6",
          "logIndex": "0x2c4",
          "removed": false
        },
        {
          "address": "0x000000000022d473030f116ddee9f6b43ac78ba3",
          "topics": [
            "0xda9fa7c1b00402c17d0161b249b1ab8bbec047c5a52207b9c112deffd817036b",
            "0x000000000000000000000000579877da5ea110b58b2c27adeb9ccc77b603c207",
            "0x000000000000000000000000833589fcd6edb6e08f4c7c32d4f71b54bda02913",
            "0x0000000000000000000000006ff5693b99212da76ad316178a184ab56d299b43"
          ],
          "data": "0x000000000000000000000000ffffffffffffffffffffffffffffffffffffffff000000000000000000000000000000000000000000000000000000006aecd8ad",
          "blockHash": "0x3cbf57cb6fe6a11bb8c5158788b46418517d4a7c6ab009b87d0c409e232b3863",
          "blockNumber": "0x240a425",
          "blockTimestamp": "0x690ba52d",
          "transactionHash": "0xa283a912a924ff8d2b7b075dbaa05750e375e68be101fd9a7d09b2c427ce0045",
          "transactionIndex": "0xb6",
          "logIndex": "0x2c5",
          "removed": false
        }
      ],
      "logsBloom": "0x00010000000000000000000000000000000000000000000000000000000000000000000000000000000000000000100000000000800000000000000000280000000000000000040000044000000000000000000000080800000000000000000000800000000000000000000000000000010000000000000000000000000000000020000000000000400000000000000000000000000000000000000000000000020000000000000000000000000000001100000000100000000000080000000000000000000000000000000000000000000000000000000440000000000000000010000000000000000000000000000000000000000000000200000000000400",
      "type": "0x2",
      "transactionHash": "0xa283a912a924ff8d2b7b075dbaa05750e375e68be101fd9a7d09b2c427ce0045",
      "transactionIndex": "0xb6",
      "blockHash": "0x3cbf57cb6fe6a11bb8c5158788b46418517d4a7c6ab009b87d0c409e232b3863",
      "blockNumber": "0x240a425",
      "gasUsed": "0x15420",
      "effectiveGasPrice": "0xab39c1",
      "from": "0xce2329658552963e09f32e04689550986cdf03b7",
      "to": "0x579877da5ea110b58b2c27adeb9ccc77b603c207",
      "contractAddress": null,
      "l1BaseFeeScalar": "0x8dd",
      "l1BlobBaseFee": "0x1",
      "l1BlobBaseFeeScalar": "0x101c12",
      "l1Fee": "0x95d6ca45",
      "l1GasPrice": "0x2945febd",
      "l1GasUsed": "0x640"
    },
    {
      "status": "0x1",
      "cumulativeGasUsed": "0x1d712bf",
      "logs": [
        {
          "address": "0x833589fcd6edb6e08f4c7c32d4f71b54bda02913",
          "topics": [
            "0xddf252ad1be2c89b69c2b068fc378daa952ba7f163c4a11628f55a4df523b3ef",
            "0x000000000000000000000000ce2329658552963e09f32e04689550986cdf03b7",
            "0x000000000000000000000000579877da5ea110b58b2c27adeb9ccc77b603c207"
          ],
          "data": "0x00000000000000000000000000000000000000000000000000000000000f4240",
          "blockHash": "0x3cbf57cb6fe6a11bb8c5158788b46418517d4a7c6ab009b87d0c409e232b3863",
          "blockNumber": "0x240a425",
          "blockTimestamp": "0x690ba52d",
          "transactionHash": "0xc6b605353a80e3400e55715026788ba395c5ca36ae79c314f92a4c5b5a541c07",
          "transactionIndex": "0xb7",
          "logIndex": "0x2c6",
          "removed": false
        },
        {
          "address": "0x498581ff718922c3f8e6a244956af099b2652b2b",
          "topics": [
            "0x40e9cecb9f5f1f1c5b9c97dec2917b7ee92e57ba5563708daca94dd84ad7112f",
            "0x1d8c55f347727c0fb4f5e1b65cdb93639e0c7102580a7d345e1144cd5a718f54",
            "0x0000000000000000000000006ff5693b99212da76ad316178a184ab56d299b43"
          ],
          "data": "0x00000000000000000000000000000000000000000000000000000000000000000000000000000000000000000000000000000000000000000000000000000000000000000000000000000000fffd8963efd1fc6a506488495d951d5263988d25000000000000000000000000000000000000000000000000000000000000000000000000000000000000000000000000000000000000000000000000000d89e70000000000000000000000000000000000000000000000000000000000000bb8",
          "blockHash": "0x3cbf57cb6fe6a11bb8c5158788b46418517d4a7c6ab009b87d0c409e232b3863",
          "blockNumber": "0x240a425",
          "blockTimestamp": "0x690ba52d",
          "transactionHash": "0xc6b605353a80e3400e55715026788ba395c5ca36ae79c314f92a4c5b5a541c07",
          "transactionIndex": "0xb7",
          "logIndex": "0x2c7",
          "removed": false
        },
        {
          "address": "0x4200000000000000000000000000000000000006",
          "topics": [
            "0xddf252ad1be2c89b69c2b068fc378daa952ba7f163c4a11628f55a4df523b3ef",
            "0x000000000000000000000000579877da5ea110b58b2c27adeb9ccc77b603c207",
            "0x000000000000000000000000ce2329658552963e09f32e04689550986cdf03b7"
          ],
          "data": "0x0000000000000000000000000000000000000000000000000000000000000000",
          "blockHash": "0x3cbf57cb6fe6a11bb8c5158788b46418517d4a7c6ab009b87d0c409e232b3863",
          "blockNumber": "0x240a425",
          "blockTimestamp": "0x690ba52d",
          "transactionHash": "0xc6b605353a80e3400e55715026788ba395c5ca36ae79c314f92a4c5b5a541c07",
          "transactionIndex": "0xb7",
          "logIndex": "0x2c8",
          "removed": false
        },
        {
          "address": "0x579877da5ea110b58b2c27adeb9ccc77b603c207",
          "topics": [
            "0xee4825a7988c5519a874be79f2a84d13d02cfe5f74cad97cda2d5b55d2b13bfa",
            "0x000000000000000000000000833589fcd6edb6e08f4c7c32d4f71b54bda02913",
            "0x0000000000000000000000004200000000000000000000000000000000000006",
            "0x000000000000000000000000ce2329658552963e09f32e04689550986cdf03b7"
          ],
          "data": "0x00000000000000000000000000000000000000000000000000000000000f42400000000000000000000000000000000000000000000000000000000000000000",
          "blockHash": "0x3cbf57cb6fe6a11bb8c5158788b46418517d4a7c6ab009b87d0c409e232b3863",
          "blockNumber": "0x240a425",
          "blockTimestamp": "0x690ba52d",
          "transactionHash": "0xc6b605353a80e3400e55715026788ba395c5ca36ae79c314f92a4c5b5a541c07",
          "transactionIndex": "0xb7",
          "logIndex": "0x2c9",
          "removed": false
        }
      ],
      "logsBloom": "0x00000000000000000000000000000000000000000000000000040000000000000000000800000000000000100000100000000000040000000020000000000000000000000000040000040008000000000000000000080020000000000000000000800000800000000008000000000000010010000000000000000010000000000000004000204000400000000000000000000000003000000000000000000000000000000002008000000000000000001100000000100000800000000000400000000002000004020040000000000000000800000000000400000000000000000000000000000000004000000000000000000400000000000200000000000000",
      "type": "0x2",
      "transactionHash": "0xc6b605353a80e3400e55715026788ba395c5ca36ae79c314f92a4c5b5a541c07",
      "transactionIndex": "0xb7",
      "blockHash": "0x3cbf57cb6fe6a11bb8c5158788b46418517d4a7c6ab009b87d0c409e232b3863",
      "blockNumber": "0x240a425",
      "gasUsed": "0xbc6b1",
      "effectiveGasPrice": "0xab39c1",
      "from": "0xce2329658552963e09f32e04689550986cdf03b7",
      "to": "0x579877da5ea110b58b2c27adeb9ccc77b603c207",
      "contractAddress": null,
      "l1BaseFeeScalar": "0x8dd",
      "l1BlobBaseFee": "0x1",
      "l1BlobBaseFeeScalar": "0x101c12",
      "l1Fee": "0x95d6ca45",
      "l1GasPrice": "0x2945febd",
      "l1GasUsed": "0x640"
    }
  ],
  "libraries": [],
  "pending": [],
  "returns": {},
  "timestamp": 1762370862556,
  "chain": 8453,
  "commit": "a570e75"
}