{
  "transactions": [
    {
      "hash": "0x6b1079e162650ad2e79222a1958369af7abf56b6dee386bd5bb109f67a79e2e6",
      "transactionType": "CALL",
      "contractName": null,
      "contractAddress": "0x4200000000000000000000000000000000000006",
      "function": "approve(address,uint256)",
      "arguments": [
        "0x88E010945BC8559383Df4fd3e2Fe38fdf0a4762b",
        "115792089237316195423570985008687907853269984665640564039457584007913129639935"
      ],
      "transaction": {
        "from": "0xce2329658552963e09f32e04689550986cdf03b7",
        "to": "0x4200000000000000000000000000000000000006",
        "gas": "0xfa0a",
        "value": "0x0",
        "input": "0x095ea7b300000000000000000000000088e010945bc8559383df4fd3e2fe38fdf0a4762bffffffffffffffffffffffffffffffffffffffffffffffffffffffffffffffff",
        "nonce": "0x12",
        "chainId": "0x2105"
      },
      "additionalContracts": [],
      "isFixedGasLimit": false
    },
    {
      "hash": "0xe9f34125ab06a96f5d3bd590b942e407fb410f0ed1b14b1821d52ad1bf72aadd",
      "transactionType": "CALL",
      "contractName": null,
      "contractAddress": "0x88e010945bc8559383df4fd3e2fe38fdf0a4762b",
      "function": "approveToken(address)",
      "arguments": [
        "0x4200000000000000000000000000000000000006"
      ],
      "transaction": {
        "from": "0xce2329658552963e09f32e04689550986cdf03b7",
        "to": "0x88e010945bc8559383df4fd3e2fe38fdf0a4762b",
        "gas": "0x1baa6",
        "value": "0x0",
        "input": "0x80b2edd80000000000000000000000004200000000000000000000000000000000000006",
        "nonce": "0x13",
        "chainId": "0x2105"
      },
      "additionalContracts": [],
      "isFixedGasLimit": false
    },
    {
      "hash": "0x8d6f96faab1465c0cb5aef631dd41dd1d0f4a08f738e948b54faba05c05b3ca2",
      "transactionType": "CALL",
      "contractName": null,
      "contractAddress": "0x88e010945bc8559383df4fd3e2fe38fdf0a4762b",
      "function": "swapWETHForUSDC(uint128,uint128)",
      "arguments": [
        "100000000000000",
        "0"
      ],
      "transaction": {
        "from": "0xce2329658552963e09f32e04689550986cdf03b7",
        "to": "0x88e010945bc8559383df4fd3e2fe38fdf0a4762b",
        "gas": "0xf9f4e",
        "value": "0x0",
        "input": "0x22c50c9c00000000000000000000000000000000000000000000000000005af3107a40000000000000000000000000000000000000000000000000000000000000000000",
        "nonce": "0x14",
        "chainId": "0x2105"
      },
      "additionalContracts": [],
      "isFixedGasLimit": false
    }
  ],
  "receipts": [
    {
      "status": "0x1",
      "cumulativeGasUsed": "0x3e138d",
      "logs": [
        {
          "address": "0x4200000000000000000000000000000000000006",
          "topics": [
            "0x8c5be1e5ebec7d5bd14f71427d1e84f3dd0314c0f7b2291e5b200ac8c7c3b925",
            "0x000000000000000000000000ce2329658552963e09f32e04689550986cdf03b7",
            "0x00000000000000000000000088e010945bc8559383df4fd3e2fe38fdf0a4762b"
          ],
          "data": "0xffffffffffffffffffffffffffffffffffffffffffffffffffffffffffffffff",
          "blockHash": "0x824bb5cde7e2f54eb7437a5b8200bfa9e88ae74ae4ddfb17fd3058c2e3cb6799",
          "blockNumber": "0x240aa43",
          "blockTimestamp": "0x690bb169",
          "transactionHash": "0x6b1079e162650ad2e79222a1958369af7abf56b6dee386bd5bb109f67a79e2e6",
          "transactionIndex": "0x19",
          "logIndex": "0x88",
          "removed": false
        }
      ],
      "logsBloom": "0x00000000000000000000000000000000000000000000000000040000000000000000000000000000000000100000000000000000000000000000000000200000000000000000000000000000000000000000000000000000000000000000000000000000000000000000000000000000000000000000000000000000000000080000004000000000000000000000000000000000002000000000000400000000020000000000000000000000000000000000000000400000800000000000000000000000000000020000000000000000000000000000000000000000000000000010000000000000000000000000000000000000000000000000000000000000",
      "type": "0x2",
      "transactionHash": "0x6b1079e162650ad2e79222a1958369af7abf56b6dee386bd5bb109f67a79e2e6",
      "transactionIndex": "0x19",
      "blockHash": "0x824bb5cde7e2f54eb7437a5b8200bfa9e88ae74ae4ddfb17fd3058c2e3cb6799",
      "blockNumber": "0x240aa43",
      "gasUsed": "0xb507",
      "effectiveGasPrice": "0x83c97a",
      "from": "0xce2329658552963e09f32e04689550986cdf03b7",
      "to": "0x4200000000000000000000000000000000000006",
      "contractAddress": null,
      "l1BaseFeeScalar": "0x8dd",
      "l1BlobBaseFee": "0x1",
      "l1BlobBaseFeeScalar": "0x101c12",
      "l1Fee": "0x80319578",
      "l1GasPrice": "0x18f6f6a8",
      "l1GasUsed": "0x640"
    },
    {
      "status": "0x1",
      "cumulativeGasUsed": "0x3f4238",
      "logs": [
        {
          "address": "0x4200000000000000000000000000000000000006",
          "topics": [
            "0x8c5be1e5ebec7d5bd14f71427d1e84f3dd0314c0f7b2291e5b200ac8c7c3b925",
            "0x00000000000000000000000088e010945bc8559383df4fd3e2fe38fdf0a4762b",
            "0x000000000000000000000000000000000022d473030f116ddee9f6b43ac78ba3"
          ],
          "data": "0xffffffffffffffffffffffffffffffffffffffffffffffffffffffffffffffff",
          "blockHash": "0x136c80afaad35961e01a9e852fbc5dc62f319223e6c617e73c0d057b50d70b04",
          "blockNumber": "0x240aa43",
          "blockTimestamp": "0x690bb169",
          "transactionHash": "0xe9f34125ab06a96f5d3bd590b942e407fb410f0ed1b14b1821d52ad1bf72aadd",
          "transactionIndex": "0x1a",
          "logIndex": "0x89",
          "removed": false
        },
        {
          "address": "0x000000000022d473030f116ddee9f6b43ac78ba3",
          "topics": [
            "0xda9fa7c1b00402c17d0161b249b1ab8bbec047c5a52207b9c112deffd817036b",
            "0x00000000000000000000000088e010945bc8559383df4fd3e2fe38fdf0a4762b",
            "0x0000000000000000000000004200000000000000000000000000000000000006",
            "0x0000000000000000000000006ff5693b99212da76ad316178a184ab56d299b43"
          ],
          "data": "0x000000000000000000000000ffffffffffffffffffffffffffffffffffffffff000000000000000000000000000000000000000000000000000000006aece4e9",
          "blockHash": "0x136c80afaad35961e01a9e852fbc5dc62f319223e6c617e73c0d057b50d70b04",
          "blockNumber": "0x240aa43",
          "blockTimestamp": "0x690bb169",
          "transactionHash": "0xe9f34125ab06a96f5d3bd590b942e407fb410f0ed1b14b1821d52ad1bf72aadd",
          "transactionIndex": "0x1a",
          "logIndex": "0x8a",
          "removed": false
        }
      ],
      "logsBloom": "0x00010000000000000000000000000000000000000000000000040000000000000000000000000000000000100000000000000000800000000020000000280000000000000000000000004000000000000000000000000800000000000000000000000000000000000000000000000000000010000000000000000000000000080020000000000000000000000000000000000000002000000000000400000000020000000000000000000000000000001000000000500000000000080000000000000000000004000000000000000000000000000000000040000000000000000010000000000000000000000000000000000000000000000200000000000400",
      "type": "0x2",
      "transactionHash": "0xe9f34125ab06a96f5d3bd590b942e407fb410f0ed1b14b1821d52ad1bf72aadd",
      "transactionIndex": "0x1a",
      "blockHash": "0x136c80afaad35961e01a9e852fbc5dc62f319223e6c617e73c0d057b50d70b04",
      "blockNumber": "0x240aa43",
      "gasUsed": "0x12eab",
      "effectiveGasPrice": "0x83c97a",
      "from": "0xce2329658552963e09f32e04689550986cdf03b7",
      "to": "0x88e010945bc8559383df4fd3e2fe38fdf0a4762b",
      "contractAddress": null,
      "l1BaseFeeScalar": "0x8dd",
      "l1BlobBaseFee": "0x1",
      "l1BlobBaseFeeScalar": "0x101c12",
      "l1Fee": "0x80319578",
      "l1GasPrice": "0x18f6f6a8",
      "l1GasUsed": "0x640"
    },
    {
      "status": "0x1",
      "cumulativeGasUsed": "0x4a91a6",
      "logs": [
        {
          "address": "0x4200000000000000000000000000000000000006",
          "topics": [
            "0xddf252ad1be2c89b69c2b068fc378daa952ba7f163c4a11628f55a4df523b3ef",
            "0x000000000000000000000000ce2329658552963e09f32e04689550986cdf03b7",
            "0x00000000000000000000000088e010945bc8559383df4fd3e2fe38fdf0a4762b"
          ],
          "data": "0x00000000000000000000000000000000000000000000000000005af3107a4000",
          "blockHash": "0x136c80afaad35961e01a9e852fbc5dc62f319223e6c617e73c0d057b50d70b04",
          "blockNumber": "0x240aa43",
          "blockTimestamp": "0x690bb169",
          "transactionHash": "0x8d6f96faab1465c0cb5aef631dd41dd1d0f4a08f738e948b54faba05c05b3ca2",
          "transactionIndex": "0x1b",
          "logIndex": "0x8b",
          "removed": false
        },
        {
          "address": "0x4200000000000000000000000000000000000006",
          "topics": [
            "0xddf252ad1be2c89b69c2b068fc378daa952ba7f163c4a11628f55a4df523b3ef",
            "0x00000000000000000000000088e010945bc8559383df4fd3e2fe38fdf0a4762b",
            "0x0000000000000000000000006ff5693b99212da76ad316178a184ab56d299b43"
          ],
          "data": "0x00000000000000000000000000000000000000000000000000005af3107a4000",
          "blockHash": "0x136c80afaad35961e01a9e852fbc5dc62f319223e6c617e73c0d057b50d70b04",
          "blockNumber": "0x240aa43",
          "blockTimestamp": "0x690bb169",
          "transactionHash": "0x8d6f96faab1465c0cb5aef631dd41dd1d0f4a08f738e948b54faba05c05b3ca2",
          "transactionIndex": "0x1b",
          "logIndex": "0x8c",
          "removed": false
        },
        {
          "address": "0x498581ff718922c3f8e6a244956af099b2652b2b",
          "topics": [
            "0x40e9cecb9f5f1f1c5b9c97dec2917b7ee92e57ba5563708daca94dd84ad7112f",
            "0x1d8c55f347727c0fb4f5e1b65cdb93639e0c7102580a7d345e1144cd5a718f54",
            "0x0000000000000000000000006ff5693b99212da76ad316178a184ab56d299b43"
          ],
          "data": "0x0000000000000000000000000000000000000000000000000000000000000000000000000000000000000000000000000000000000000000000000000000000000000000000000000000000000000000000000000000000000000001000276a40000000000000000000000000000000000000000000000000000000000000000fffffffffffffffffffffffffffffffffffffffffffffffffffffffffff276180000000000000000000000000000000000000000000000000000000000000bb8",
          "blockHash": "0x136c80afaad35961e01a9e852fbc5dc62f319223e6c617e73c0d057b50d70b04",
          "blockNumber": "0x240aa43",
          "blockTimestamp": "0x690bb169",
          "transactionHash": "0x8d6f96faab1465c0cb5aef631dd41dd1d0f4a08f738e948b54faba05c05b3ca2",
          "transactionIndex": "0x1b",
          "logIndex": "0x8d",
          "removed": false
        },
        {
          "address": "0x88e010945bc8559383df4fd3e2fe38fdf0a4762b",
          "topics": [
            "0xee4825a7988c5519a874be79f2a84d13d02cfe5f74cad97cda2d5b55d2b13bfa",
            "0x0000000000000000000000004200000000000000000000000000000000000006",
            "0x000000000000000000000000833589fcd6edb6e08f4c7c32d4f71b54bda02913",
            "0x000000000000000000000000ce2329658552963e09f32e04689550986cdf03b7"
          ],
          "data": "0x00000000000000000000000000000000000000000000000000005af3107a40000000000000000000000000000000000000000000000000000000000000000000",
          "blockHash": "0x136c80afaad35961e01a9e852fbc5dc62f319223e6c617e73c0d057b50d70b04",
          "blockNumber": "0x240aa43",
          "blockTimestamp": "0x690bb169",
          "transactionHash": "0x8d6f96faab1465c0cb5aef631dd41dd1d0f4a08f738e948b54faba05c05b3ca2",
          "transactionIndex": "0x1b",
          "logIndex": "0x8e",
          "removed": false
        }
      ],
      "logsBloom": "0x00000000000000000000000000000000000000000000000000040000000000000000000800000000000000100000000000000000042000000020000000000000000000000000040000000008000000000000000000000020000000000000000000000000000000000008000000000000010010000000000000000010000000080000004000204080400000000000000000000000003000000000000400000000000000000002000000000000000000001000000000500000800000000000400000000002000004020000000000000000000800000000000000000000000000000000000000000000004000000000000000000400000000000200000000000000",
      "type": "0x2",
      "transactionHash": "0x8d6f96faab1465c0cb5aef631dd41dd1d0f4a08f738e948b54faba05c05b3ca2",
      "transactionIndex": "0x1b",
      "blockHash": "0x136c80afaad35961e01a9e852fbc5dc62f319223e6c617e73c0d057b50d70b04",
      "blockNumber": "0x240aa43",
      "gasUsed": "0xb4f6e",
      "effectiveGasPrice": "0x83c97a",
      "from": "0xce2329658552963e09f32e04689550986cdf03b7",
      "to": "0x88e010945bc8559383df4fd3e2fe38fdf0a4762b",
      "contractAddress": null,
      "l1BaseFeeScalar": "0x8dd",
      "l1BlobBaseFee": "0x1",
      "l1BlobBaseFeeScalar": "0x101c12",
      "l1Fee": "0x80319578",
      "l1GasPrice": "0x18f6f6a8",
      "l1GasUsed": "0x640"
    }
  ],
  "libraries": [],
  "pending": [],
  "returns": {},
  "timestamp": 1762373993144,
  "chain": 8453,
  "commit": "ba792ff"
}